:020000040800F2
:10000000000002205D020008AD020008AD020008F9
:10001000AD020008AD020008AD02000800000000BB
:10002000000000000000000000000000AD02000819
:10003000AD02000800000000AD020008AD0200089B
:10004000AD020008AD020008AD020008AD020008D4
:10005000AD020008AD020008AD020008AD020008C4
:10006000AD020008AD020008AD020008AD020008B4
:10007000AD020008AD020008AD020008AD020008A4
:10008000AD020008AD020008AD020008000000004B
:10009000000000000000000000000000AD020008A9
:1000A000AD020008AD020008AD020008AD02000874
:1000B000AD020008AD020008AD020008AD02000864
:1000C000AD020008AD020008AD020008AD02000854
:1000D000AD020008AD020008AD02000800000000FB
:1000E000AD020008AD020008AD02000800000000EB
:1000F000000000000000000000000000AD02000849
:1001000000000000AD020008AD020008AD020008CA
:1001100000000000000000000000000000000000DF
:10012000AD020008AD020008AD020008AD020008F3
:10013000AD02000800000000000000000000000008
:10014000000000000000000000000000AD020008F8
:10015000AD020008AD020008AD020008AD020008C3
:10016000AD020008AD020008000000000000000021
:10017000000000000000000000000000000000007F
:1001800000000000AD0200080000000000000000B8
:10019000AD020008AD020008704700BF000000007B
:1001A00000B589B000F00CF900F02AF80023124ADB
:1001B0000193116B1148114C41F001011163126B55
:1001C00004939FED0B7B02F00102019202A98DEDD9
:1001D000027BCDE90533019A00F0C2F920462021C7
:1001E00000F044FB4FF4FA7000F034F9F6E700BF7A
:1001F0002000000001000000003802400000024022
:1002000000B593B02C22002107A801F08FFA00233B
:100210000221012206A8CDE90133CDE90333009381
:100220000691099200F052FB00B1FEE70122002383
:1002300001466846CDE9002300F0BAFD00B1FEE7B3
:1002400013B05DF804FB00BFF017000800000020A9
:100250000C0000200C00002010000020DFF834D03B
:1002600000F026F80C480D490D4A002302E0D4584E
:10027000C4500433C4188C42F9D30A4A0A4C0023F0
:1002800001E013600432A242FBD301F027FAFFF72A
:1002900087FF704700000220000000200C000020B3
:1002A000F01700080C00002010000020FEE70000FE
:1002B000034AD2F8883043F47003C2F8883070479C
:1002C00000ED00E0164A936803F00C03042B25D0E0
:1002D000082B0AD0134B124A134892681349C2F3F1
:1002E0000312825CD3400B6070475368516813F46B
:1002F000800F536814BF0E4A0A4AC3F3881301F0F3
:100300003F01B2FBF1F202FB03F3054A5268C2F36C
:10031000014201325200B3FBF2F3DCE7044BDAE7AF
:10032000003802400024F400D0170008000000202C
:1003300040787D01704700BF704700BF10B50B4B80
:100340000B490C4A196200241C620B485A62802136
:100350004FF0FF325C6218611C6159615C619A6107
:100360009C61FFF7E9FF204610BD00BF0038024046
:100370000FC8E210317917009F10600070B50E4B66
:100380000E4E0546327818684FF47A73B3FBF2F3D9
:10039000B0FBF3F000F0C8FE08B90F2D01D9012021
:1003A00070BD0446024629464FF0FF3000F04EFE75
:1003B0007560204670BD00BF0000002004000020D2
:1003C00008B50B4B1A6842F400721A601A6842F4BE
:1003D00080621A601A6842F480721A60032000F08A
:1003E00023FE0F20FFF7CAFFFFF7A4FF002008BD80
:1003F000003C0240034A044B11681B780B44136015
:10040000704700BF0C00002004000020014B18685A
:10041000704700BF0C000020014B5868704700BFB8
:100420000400002038B5074C2578854201D1002012
:1004300038BD034660682370FFF7A0FF0028F7D09F
:10044000257038BD04000020014B1878704700BFAC
:100450000400002038B50446FFF7D8FF631C0546AA
:1004600002D0044B1B781C44FFF7D0FF401BA04276
:10047000FAD338BD040000204FF0E022136923F0C6
:1004800002031361704700BF4FF0E022136943F08D
:1004900002031361704700BF004870470004080161
:1004A000014B1868000C7047002004E0024B1868EC
:1004B000C0F30B00704700BF002004E0024A5368FD
:1004C00043F0010353607047002004E0024A536880
:1004D00023F0010353607047002004E0024A536890
:1004E00043F0020353607047002004E0024A53685F
:1004F00023F0020353607047002004E0024A53686F
:1005000043F0040353607047002004E0024A53683C
:1005100023F0040353607047002004E0024B0122E3
:10052000C3F80024704700BF00002742024B00229E
:10053000C3F80024704700BF00002742014BD3F8E6
:10054000100A70470070FF1F014BD3F8140A704760
:100550000070FF1F014BD3F8180A70470070FF1F8F
:100560002DE9F04F00230C68DFF8C8A185B04FF0EB
:10057000010B894602E00133102B7DD00BFA03F208
:1005800002EA0408A243F6D1D9F8041001F0030CE2
:100590005A0003250CF1FF369540012E6FEA050540
:1005A0006DD9BCF1030F40F0B48006680CFA02F27A
:1005B00035402A4311F4403F0260DCD00022039210
:1005C000DAF8442042F48042CAF84420DAF84420A1
:1005D00002F480420392039A23F0030202F1804264
:1005E00003F003060F2702F59C32B60007FA06FC5B
:1005F0004D4F9568B84225EA0C0515D007F5806780
:10060000B84274D0494FB84277D0DFF82CC160456A
:1006100079D0DFF828C160450CBF4FF0040C4FF0D3
:10062000070C0CFA06F635439560414A9268CE02F3
:100630006FEA08053E4E54BF2A4048EA0202B26003
:10064000F2683B4E8F0254BF2A4048EA0202F26031
:1006500072688E03364E54BF2A4048EA0202726026
:100660003268C90303F10103314954BF2A4048EA03
:100670000202102B0A6081D105B0BDE8F08F8668B8
:1006800006EA050ED9F80C60964046EA0E0686602A
:10069000466826EA080EC1F300169E4046EA0E069A
:1006A0004660C66806EA050ED9F80860964046EA34
:1006B0000E06BCF1020FC6607FF477AFDE0800EBD8
:1006C00086060196376AD9F81060009703F0070E86
:1006D0004FEA8E0E0F2706FA0EF607FA0EFE009F5F
:1006E00027EA0E0E019F46EA0E063E625DE74FF0D6
:1006F000010C0CFA06F6354396E74FF0020C0CFAA3
:1007000006F6354390E74FF0030C0CFA06F6354336
:100710008AE7C66806EA050ED9F80860964046EAF8
:100720000E06C66041E700BF00000240000802401C
:10073000003C014000380240000C02400010024022
:100740002DE9F04F0023DFF80CA101264FF00F092F
:100750004FF0030B02E00133102B64D006FA03F2D2
:1007600032EA010402EA010CF5D123F0030505F198
:10077000804505F59C3503F00304A400D5F808E096
:1007800009FA04F85045274608EA0E0E4DD02C4CC5
:10079000A0424CD02B4CA0424CD02B4CA0424CD071
:1007A0002A4CA0420CBF04240724BC40A64515D106
:1007B000274C274F246824EA0C043C607C6824EA18
:1007C0000C047C60FC6824EA0C04FC60BC6824EA2D
:1007D0000C04BC60AC6824EA0804AC6005685C00EA
:1007E0000BFA04F44FEAD30C25EA040500EB8C0C59
:1007F000056003F00705DCF820E0AD0009FA05F517
:100800002EEA0505CCF82050C56825EA0405C56028
:10081000456825EA020242608268013322EA040246
:10082000102B82609AD1BDE8F08F0024BEE706FA53
:1008300007F4BBE70224BC40B8E70324BC40B5E79B
:100840000004024000080240000C02400010024078
:10085000003C0140000002400369194214BF01201E
:100860000020704702B9090481617047436901EAB9
:10087000030221EA030141EA02418161704700BF9E
:1008800082B04FF480330193019B0B430193019B92
:10089000C361C161019BC361C3690193C06980F4F5
:1008A0008030C0F3004002B0704700BF704700BF07
:1008B000044A5169014200D1704708B55061FFF701
:1008C000F5FF08BD003C014000207047002800F003
:1008D000D8812DE9F0410368DD0782B004462FD5A9
:1008E0009D498A6802F00C02042A00F0EC808A68B4
:1008F00002F00C02082A00F0E2806368B3F5803F42
:1009000000F0EB80B3F5A02F00F07381924D2A68C0
:1009100022F480322A602A6822F480222A60002B86
:1009200040F0E080FFF772FD064605E0FFF76EFD40
:10093000801B642800F200812B689F03F6D4236893
:100940009D0728D5844A916811F00C0F00F09B8018
:10095000916801F00C01082900F09180E368002BF8
:1009600000F00C817D4B7C4E01221A60FFF74EFD9A
:10097000054605E0FFF74AFD401B022800F2DC8037
:1009800033689F07F6D53368226923F0F80343EAFA
:10099000C203336023681A075CD45D073AD56E4AF8
:1009A000136C13F0805340F088800193136C43F074
:1009B00080531364136C03F080530193019B012552
:1009C000674E3368D80540F1A780A368012B00F07B
:1009D000B780052B00F01D815F4E326F22F00102BF
:1009E0003267326F22F004023267002B40F0AD8094
:1009F000FFF70CFD41F28838074605E0FFF706FDDA
:100A0000C01B404500F29880336F9B07F6D4002D41
:100A100040F0F980A369CBB14F4DAA6802F00C02F7
:100A2000082A00F0BC80022B4C4B4FF000021A66E3
:100A300000F0F980FFF7EAFC044604E0FFF7E6FC6B
:100A4000001B022878D82B689B01F7D4002002B045
:100A5000BDE8F0816369FBB1404B3F4E0122C3F812
:100A6000802EFFF7D3FC054604E0FFF7CFFC401BC8
:100A7000022861D8736F9B07F7D523688DE752680A
:100A800051023FF56BAF344A1268920738D5E268DD
:100A9000012A35D00120DAE7304A2F4EC2F8803ED5
:100AA000FFF7B4FC054604E0FFF7B0FC401B02284A
:100AB00042D8736F9F07F7D4DFE7002580E74A68C5
:100AC00051027FF51AAF244A126892037FF538AFBE
:100AD0006268002A7FF434AFDCE71F4A136843F4EE
:100AE00080331360FFF792FC1B4E054604E0FFF7CE
:100AF0008DFC401B64281FD833689B03F7D51EE785
:100B0000154920690A6822F0F80242EAC0020A6028
:100B10001A077FF542AF9DE7336843F48073336073
:100B2000FFF774FC07463368D9053FF54EAFFFF772
:100B30006DFCC01B0228F6D9032002B0BDE8F0818D
:100B4000054A136F43F001031367FFF75FFC024F81
:100B5000064641F288380AE0003802400000474269
:100B600000700040FFF752FC801B4045E4D83B6F0B
:100B70009A07F7D5002D3FF44DAF44E0424A434E6B
:100B80001360FFF743FC054604E0FFF73FFC401B02
:100B90000228D1D833689907F7D42368FBE6012BE4
:100BA0003FF478AF6B68E26903F4800191427FF40F
:100BB00071AF226A03F03F0191427FF46BAF616A2B
:100BC00047F6C0721A40B2EB811F7FF463AFA26A8E
:100BD000520803F44031013AB1EB024F7FF45AAFAF
:100BE000E26A03F07063B3EB026F14BF01200020D0
:100BF0002DE7264B1A6842F480221A601A6842F4E4
:100C000080321A606EE7214A136C23F0805313641C
:100C100000E71E4B1A6F42F004021A671A6F42F087
:100C200001021A6791E7FFF7F1FB064605E0FFF7BF
:100C3000EDFB801B02283FF67FAF2B689901F6D4AD
:100C4000D4E90731626A0B4343EA8213D4E90A20EC
:100C500052080D4943EA0063013A43EA0243012284
:100C60006B600A66FFF7D2FB084D044605E0FFF70C
:100C7000CDFB001B02283FF65FAF2B689A01F6D52B
:100C8000E4E60120704700BF000047420038024000
:100C900070B5244E88B00D461446F8B90090336BF9
:100CA00043F001033363336B069003F001030093B9
:100CB0004FF480720223CDE902231B480022032354
:100CC00002A9CDE90423009BFFF74AFCB36823F097
:100CD000EC632B432343B36008B070BD0022019244
:100CE000336B124843F004033363336B069203F013
:100CF000040301934FF400720223CDE9022302A9F9
:100D000000220323CDE90423019BFFF729FCB368EC
:100D100023F0784343EA050141EAC401B16008B019
:100D200070BD00BF003802400000024000080240D1
:100D3000014B0122DA64704700004742014B002258
:100D4000DA64704700004742164908B58B6803F023
:100D50000C03042B1BD0082B01D0134808BD4A6894
:100D60004B68496813F4800302F03F0211D10E482A
:100D7000C1F38811A1FB000100F038FB094B5B684F
:100D8000C3F3014301335B00B0FBF3F008BD074838
:100D900008BD0648C1F388110023A1FB000100F043
:100DA00025FBEBE7003802400024F40040787D0189
:100DB000002800F08780484A136803F007038B423D
:100DC0002DE9F0410D46044609D2CBB213701368E9
:100DD00003F007038B4202D00120BDE8F0812368B5
:100DE000980714D5590704D53C498A6842F4E05263
:100DF0008A601A0704D539498A6842F460428A60D9
:100E00003649A0688A6822F0F00202438A60DF0750
:100E100021D56268012A57D0931E012B2F4B1B68E6
:100E20004DD99907D8D52D4EB36823F0030313434A
:100E3000B360FFF7EBFA41F28838074604E0FFF7AA
:100E4000E5FAC01B404544D8B368626803F00C0360
:100E5000B3EB820FF3D1204A136803F00703AB42D0
:100E600006D9EBB21370136803F00703AB42B3D19A
:100E700023685A0706D51949E0688A6822F4E052C7
:100E800002438A601B0707D5144A2169936823F43B
:100E9000604343EAC1039360FFF756FF0F4A104CCB
:100EA00092681049C2F303120346A25C0E48D34075
:100EB00000680B60FFF762FA0020BDE8F08198013E
:100EC000B1D489E701207047044B1B689E03AAD464
:100ED00082E7032081E700BF003C02400038024067
:100EE000D01700080000002008000020014B1868FF
:100EF000704700BF00000020044B05499B68054A6D
:100F00000868C3F38223D35CD8407047003802409E
:100F100000000020E0170008044B05499B68054AC3
:100F20000868C3F34233D35CD840704700380240AE
:100F300000000020E0170008214B0F2202601A6811
:100F4000510358BF1A681E4B54BF02F480324FF44D
:100F5000A02242601A6802F00102C2601A68C2F35D
:100F6000C40202611A6F520758BF1A6F144B54BF64
:100F700002F00102052282605A6F02F00102426112
:100F80001A6812F0807F0CBF0122022282615A6827
:100F900002F48002C2615A6802F03F0202625A689B
:100FA000C2F3881242625A6802F4403202F580327B
:100FB000D20B82625B68C3F30363C362704700BFF6
:100FC000003802400E4B0F2202609A6802F00302C2
:100FD00042609A6802F0F00282609A6802F4E0527D
:100FE000C2609B68DB0810B403F4E053054C036156
:100FF00023685DF8044B03F007030B60704700BFE4
:1010000000380240003C0240704700BF10B5054C5C
:10101000E3681B0600D410BDFFF7F6FF8023A3731F
:1010200010BD00BF003802400749CA6803024FF6EE
:10103000FF0003F4E0630240134343F0BF6343F453
:101040000033CB60704700BF00ED00E01B4BDB6856
:10105000C3F3022300B5C3F1070EBEF1040F03F181
:10106000040C28BF4FF0040EBCF1060F1CD9A3F1ED
:10107000030C4FF0FF3303FA0CF322EA03024FF0A4
:10108000FF3303FA0EF321EA030303FA0CF31343CD
:101090001B010028DBB20ADB00F1604000F5614073
:1010A00080F800335DF804FB00229446E7E7044A29
:1010B00000F00F00024413765DF804FB00ED00E041
:1010C000FCEC00E0002807DB044A4109012300F0A2
:1010D0001F00834042F82130704700BF00E100E06C
:1010E00000280CDB4309064900F01F0020330122D1
:1010F000824041F82320BFF34F8FBFF36F8F7047BB
:1011000000E100E0BFF34F8F0549064BCA6802F4C7
:10111000E0621343CB60BFF34F8F00BFFDE700BF1A
:1011200000ED00E00400FA050138B0F1807F01D342
:101130000120704710B44FF0E023074C58614FF086
:10114000F00C84F823C00022072110469A615DF854
:10115000044B1961704700BF00ED00E0BFF35F8FE3
:10116000044B5A6A002122F480325A62C3F8941068
:10117000704700BF00ED00E0064B40F00100C3F8EF
:1011800094005A6A42F480325A62BFF34F8FBFF321
:101190006F8F704700ED00E0044BC3F89800D3F860
:1011A000A02042F00102C3F8A020704700ED00E04B
:1011B000044BC3F89800D3F8A02022F00102C3F832
:1011C000A020704700ED00E0164A4378C2F898303E
:1011D000D2F8A03023F00103C2F8A0304368C2F86F
:1011E0009C30C37A90F80CC001781B0643EA0C735C
:1011F00090F80AC00B43417B43EACC4390F80EC001
:1012000043EA8143C17B43EA4C4390F809C043EA77
:101210000143017A43EA0C2343EA4103C2F8A030B8
:10122000704700BF00ED00E040BF20BF704700BF27
:10123000024BD868C0F30220704700BF00ED00E009
:10124000002810B427DB00F1604000F5614090F801
:101250000003000901F00701C1F1070CBCF1040F04
:1012600001F1040428BF4FF0040C062C11D90339F6
:101270004FF0FF348C4020EA0404C8404FF0FF31A7
:1012800001FA0CF120EA010010601C605DF8044BCB
:1012900070470024F2E7034C00F00F000444207E66
:1012A0000009D7E7FCEC00E0002808DB430904490B
:1012B00000F01F0001224033824041F82320704794
:1012C00000E100E000280BDB4309064A403300F050
:1012D0001F0052F8233023FA00F000F0010070479D
:1012E0000020704700E100E0002808DB43090449C2
:1012F00000F01F0001226033824041F82320704734
:1013000000E100E000280BDB4309064A803300F0CF
:101310001F0052F8233023FA00F000F0010070475C
:101320000020704700E100E04FF0E022042813693C
:101330000CBF43F0040323F004031361704700BFA4
:10134000704700BF08B5FFF7FBFF08BD7BB972B956
:101350000029BEBF00204FF0004106E008BF002872
:101360001CBF6FF000414FF0FF3000F0B5B9ADF198
:10137000080C6DE904CE002909DB002B1ADB00F014
:101380004DF8DDF804E0DDE9022304B07047404287
:1013900061EB4101002B1BDB00F040F8DDF804E0BD
:1013A000DDE9022304B0404261EB4101524263EBAC
:1013B00043037047524263EB430300F02FF8DDF81C
:1013C00004E0DDE9022304B0404261EB41017047D3
:1013D000524263EB430300F021F8DDF804E0DDE95D
:1013E000022304B0524263EB4303704753B94AB936
:1013F000002908BF00281CBF4FF0FF314FF0FF301D
:1014000000F06AB9ADF1080C6DE904CE00F006F801
:10141000DDF804E0DDE9022304B070472DE9F04770
:10142000089D0E4604460F46002B4AD194468C4533
:10143000B2FA82F260D942B1C2F12003974020FA99
:1014400003F30CFA02FC1F4394404FEA1C4E1FFAB0
:101450008CF6B7FBFEF1230C0EFB117743EA074332
:1014600001FB06F098420AD91CEB030301F1FF3798
:1014700080F01581984240F21281023963441B1AB0
:10148000A4B2B3FBFEF00EFB103344EA034400FBAE
:1014900006F6A6420AD91CEB040400F1FF3380F0E3
:1014A0000081A64240F2FD806444023840EA0140D7
:1014B000A41B00211DB1D4400023C5E90043BDE8B1
:1014C000F0878B4205D90DB1C5E90001002108461E
:1014D000F5E7B3FA83F1002946D1B34202D3824241
:1014E00000F2F580841A66EB030201201746002DF6
:1014F000E5D0C5E90047E2E7002A40F09380A1EB80
:101500000C034FEA1C471FFA8CFE0121B3FBF7F6D0
:1015100007FB1630230C43EA00430EFB06F098420B
:1015200008D91CEB030306F1FF3802D2984200F2FF
:10153000D08046461B1AA4B2B3FBF7F007FB10336A
:1015400044EA03440EFB00FEA64508D91CEB040444
:1015500000F1FF3302D2A64500F2B6801846A4EB94
:101560000E0440EA0640A5E7C1F120078B4022FAAD
:1015700007FC4CEA030C06FA01FE20FA07F426FAEF
:1015800007F344EA0E0400FA01F84FEA1C404FEA60
:101590001449B3FBF0FE1FFA8CF600FB1E3349EA38
:1015A00003430EFB06F9994502FA01F20BD91CEB35
:1015B00003030EF1FF3A80F08580994540F2828066
:1015C000AEF1020E6344A3EB0909A4B2B9FBF0F338
:1015D00000FB139944EA094403FB06F6A64208D926
:1015E0001CEB040403F1FF3068D2A64266D9023B2B
:1015F000644443EA0E40A41BA0FB02E6B4427346D7
:10160000B14652D34FD05DB1B8EB030264EB09048D
:1016100004FA07F722FA01F31F43CC40C5E900742E
:1016200000214CE7C2F1200120FA01F30CFA02FC80
:1016300026FA01F1964033434FEA1C471FFA8CFE0D
:10164000B1FBF7F007FB1016190C41EA064100FB4D
:101650000EF68E4204FA02F408D91CEB010100F1E7
:10166000FF382DD28E422BD902386144891B9BB2A0
:10167000B1FBF7F607FB161143EA014306FB0EF137
:10168000994208D91CEB030306F1FF3814D29942A2
:1016900012D9023E63445B1A46EA004136E73946F6
:1016A000EDE6184602E7F045ADD2BEEB020366EB6D
:1016B0000C060138B146A6E74646ECE7034698E734
:1016C0004046D3E7D6467EE76444023847E70846FB
:1016D0000DE7023E63442DE7704700BF70B50F4B26
:1016E0000F4DAB42A3EB050607D0B610002455F80A
:1016F000043B01349847A642F9D8FEF74DFD094D49
:10170000094B5E1BAB424FEAA60606D0002455F8F3
:10171000043B01349847A642F9D870BD0000000090
:10172000000000000000000000000000830730B54A
:1017300047D0541E002A3ED0CAB2034601E0013C05
:1017400039D303F8012B9D07F9D1032C2CD9CDB245
:1017500005EB05250F2C05EB054535D9A4F1100245
:1017600022F00F0C03F1100EE6444FEA121C1A4649
:10177000C2E90055C2E9025510327245F8D10CF1A8
:10178000010214F00C0F03EB021204F00F0C13D043
:10179000ACF1040323F003030433134442F8045B65
:1017A0009342FBD10CF003042CB1C9B21C4403F8E2
:1017B000011BA342FBD130BD64461346002CF4D17B
:1017C000F9E703461446C0E71A46A446E0E700BF1F
:1017D00000000000000000000102030406070809E1
:0817E0000000000001020304F7
:0817E80034FCFF7F010000004A
:0C17F0000024F4000100000010000000C4
:0400000508000000EF
:00000001FF
