:020000040800F2
:10000000008001207103000895150008971500086D
:10001000991500089B1500089D15000800000000B8
:100020000000000000000000000000009F15000814
:10003000A115000800000000A3150008A515000880
:10004000C1030008C1030008C1030008C103000880
:10005000C1030008C1030008C1030008C103000870
:10006000C1030008C1030008C1030008C103000860
:10007000C1030008C1030008C1030008C103000850
:10008000C1030008C1030008C1030008000000000C
:10009000000000000000000000000000C103000894
:1000A000C1030008C1030008C1030008C103000820
:1000B000C1030008C1030008C1030008C103000810
:1000C000C1030008C1030008C1030008C103000800
:1000D000C1030008C1030008C103000800000000BC
:1000E000C1030008C1030008C103000800000000AC
:1000F000000000000000000000000000C103000834
:1001000000000000C1030008C1030008C10300088B
:1001100000000000000000000000000000000000DF
:10012000C1030008C1030008C1030008C10300089F
:10013000C1030008000000000000000000000000F3
:10014000000000000000000000000000C1030008E3
:10015000C1030008C1030008C1030008C10300086F
:10016000C1030008C10300080000000000000000F7
:10017000000000000000000000000000000000007F
:1001800000000000C10300080000000000000000A3
:04019000C10300089F
:1001940008B50848084B03604FF4E133436000237B
:1001A4008360C36003610C2242618361C36100F018
:1001B400D0FE08BD600000200044004008B50D4892
:1001C4000D4B03600D4B436000238360C3604FF409
:1001D4008042026143618361C361036200F0A4FF52
:1001E40000B108BD4FF0FF3305220549054800F072
:1001F400E0FEF6E70C00002000540040A086010059
:10020400901900086000002030B58BB000240594DC
:10021400069407940894099401941F4B1A6B42F0B6
:1002240004021A631A6B02F004020192019A029406
:100234001A6B42F080021A631A6B02F08002029277
:10024400029A03941A6B42F001021A631A6B02F0C9
:1002540001020392039A04941A6B42F002021A6395
:100264001B6B03F002030493049B4FF400530593A8
:100274004FF4881306930125079505A9074800F054
:10028400FBF8202305930694079505A9044800F07C
:10029400F3F80BB030BD00BF003802400008024044
:1002A4000000024008B500F0BBF800F01FF8FFF7AB
:1002B400ABFFFFF76DFFFFF781FF4FF0FF33032222
:1002C400EE21064801F00EF800B9FEE74FF0FF33C7
:1002D40006220349034800F06CFEF6E70C000020F8
:1002E40098190008600000207047000010B594B011
:1002F4003022002108A801F0F7FA002403940494A2
:100304000594069407940194164B1A6C42F080529B
:100314001A641B6C03F080530193019B0294124AEC
:10032400136823F4404343F400431360136803F455
:1003340040430293029B0A23089301230B93102248
:100344000C920D930E9408A800F07AF90F230393EE
:100354000494059406940794214603A800F0C0FB76
:1003640014B010BD0038024000700040DFF834D0F3
:1003740000F026F80C480D490D4A002302E0D45839
:10038400C4500433C4188C42F9D30A4A0A4C0023DB
:1003940001E013600432A242FBD301F07DFAFFF7BF
:1003A40081FF704700800120000000200C00002025
:1003B400C01900080C000020AC000020FEE700007B
:1003C400034AD2F8883043F47003C2F88830704787
:1003D40000ED00E010B504460E4B1A784FF47A7322
:1003E400B3FBF2F30C4A1068B0FBF3F000F0A4FC8A
:1003F40068B90F2C01D901200AE0002221464FF0F0
:10040400FF3000F089FC054B1C60002000E0012057
:1004140010BD00BF040000200000002008000020E0
:1004240008B50B4B1A6842F400721A601A6842F459
:1004340080621A601A6842F480721A60032000F025
:1004440059FC0F20FFF7C6FF01F016F8002008BD85
:10045400003C0240034A1168034B1B780B441360B1
:10046400704700BFA800002004000020014B18685A
:10047400704700BFA800002000230F2B00F2D78094
:1004840070B582B065E085684FEA430E032404FA30
:100494000EF425EA0405CC6804FA0EF42C438460B7
:1004A400446824EA02044A68C2F300129A402243D0
:1004B40042605CE0DC08083450F8242003F00705AF
:1004C400AD004FF00F0E0EFA05FE22EA0E0E0A6979
:1004D400AA4042EA0E0240F824205CE0042200E034
:1004E400002202FA0EF22A430234514D45F8242028
:1004F400504A94686FEA0C0224EA0C054E6816F41C
:10050400801F01D04CEA04054A4CA560E46802EA65
:1005140004054E6816F4001F01D04CEA0405454C4E
:10052400E560646802EA04054E6816F4003F01D0F1
:100534004CEA04053F4C6560246822404D6815F47C
:10054400803F01D04CEA04023A4C226001330F2B65
:100554006BD801229A400C6804EA020C32EA0404C3
:10056400F4D14C6804F00304013C012C8BD94A6893
:1005740002F00302032A09D0C4685D000322AA40E2
:1005840024EA02048A68AA402243C2604A6802F04C
:100594000302022A8ED004684FEA430E032202FAB1
:1005A4000EF224EA02044A6802F0030202FA0EF28E
:1005B400224302604A6812F4403FC7D000220192ED
:1005C4001D4A546C44F480445464526C02F48042D6
:1005D4000192019A9C08A51C154A52F8255003F073
:1005E400030E4FEA8E0E0F2202FA0EF225EA0205DE
:1005F400124A90423FF474AF02F5806290420ED0EA
:1006040002F5806290420CD002F5806290420AD0DA
:1006140002F5806290423FF461AF072261E7012254
:100624005FE702225DE703225BE702B070BD70471B
:1006340000380140003C0140003802400000024004
:10064400002800F0E08170B582B00446036813F01E
:10065400010F3BD09F4B9B6803F00C03042B2CD061
:100664009C4B9B6803F00C03082B21D06368B3F503
:10067400803F4FD0B3F5A02F52D0964B1A6822F486
:1006840080321A601A6822F480221A606368002B90
:1006940050D0FFF7EBFE05468E4B1B6813F4003F6A
:1006A40014D1FFF7E3FE401B6428F5D90320B1E120
:1006B400884B5B6813F4800FD8D0864B1B6813F407
:1006C400003F03D06368002B00F09F81236813F080
:1006D400020F54D07F4B9B6813F00C0F3ED07D4B20
:1006E4009B6803F00C03082B33D0E368002B68D01D
:1006F400794B01221A60FFF7B9FE0546754B1B685A
:1007040013F0020F54D1FFF7B1FE401B0228F5D9B4
:1007140003207FE16F4A136843F480331360B5E725
:100724006C4B1A6842F480221A601A6842F48032D0
:100734001A60ABE7FFF79AFE0546664B1B6813F495
:10074400003FC3D0FFF792FE401B6428F5D9032075
:1007540060E1604B5B6813F4800FC6D15D4B1B688E
:1007640013F0020F03D0E368012B40F05081594A83
:10077400136823F0F803216943EAC1031360236873
:1007840013F0080F42D063696BB3534B0122C3F8D3
:10079400802EFFF76BFE05464E4B5B6F13F0020F86
:1007A40034D1FFF763FE401B0228F5D9032031E161
:1007B400484A136823F0F803216943EAC10313602C
:1007C400DDE7454B00221A60FFF750FE0546414B1A
:1007D4001B6813F0020FD2D0FFF748FE401B02281B
:1007E400F5D9032016E13C4B0022C3F8802EFFF715
:1007F4003DFE0546374B5B6F13F0020F06D0FFF743
:1008040035FE401B0228F5D9032003E1236813F0C9
:10081400040F77D02F4B1B6C13F0805F33D1002370
:1008240001932C4B1A6C42F080521A641B6C03F037
:1008340080530193019B0125284B1B6813F4807F8F
:1008440023D0A368012B34D0052B38D0214B1A6F49
:1008540022F001021A671A6F22F004021A67A368D1
:10086400002B3DD0FFF702FE06461A4B1B6F13F018
:10087400020F46D1FFF7FAFD801B41F288339842FC
:10088400F3D90320C6E00025D6E7144A136843F4DD
:1008940080731360FFF7EAFD0646104B1B6813F4E0
:1008A400807FCED1FFF7E2FD801B0228F5D903201B
:1008B400B0E0084A136F43F001031367CFE7054B19
:1008C4001A6F42F004021A671A6F42F001021A67A3
:1008D400C5E700BF003802400000474200700040F6
:1008E400FFF7C4FD0646524B1B6F13F0020F08D0EE
:1008F400FFF7BCFD801B41F288339842F3D90320F3
:1009040088E0EDB9A369002B00F08380484A92681F
:1009140002F00C02082A51D0022B17D0454B0022BA
:100924001A66FFF7A3FD0446414B1B6813F0007FD2
:1009340042D0FFF79BFD001B0228F5D9032069E094
:100944003B4A136C23F080531364DBE7394B0022DA
:100954001A66FFF78BFD0546354B1B6813F0007FC5
:1009640006D0FFF783FD401B0228F5D9032051E090
:10097400E369226A1343626A43EA8213A26A520851
:10098400013A43EA0243E26A43EA0263284A5360B3
:10099400284B01221A66FFF769FD0446244B1B68A5
:1009A40013F0007F06D1FFF761FD001B0228F5D983
:1009B40003202FE000202DE000202BE0012B2BD082
:1009C4001B4B5B6803F48001E269914226D103F07A
:1009D4003F02216A8A4223D1616A47F6C0721A40F3
:1009E400B2EB811F1ED103F44031A26A5208013ACE
:1009F400B1EB024F18D103F07063E26AB3EB026FFC
:100A040014D1002006E001207047012002E00120FB
:100A140000E0002002B070BD0120FBE70120F9E7EF
:100A24000120F7E70120F5E70120F3E70120F1E7D2
:100A3400003802400000474208B5264B9B6803F08B
:100A44000C03042B41D0082B41D1224B5A6802F0ED
:100A54003F025B6813F4800F12D01E4B5968C1F338
:100A640088111D480023A1FB000100F09DFD194BD6
:100A74005B68C3F3014301335B00B0FBF3F008BDD3
:100A8400144B5868C0F388104FEA401CBCEB000CB0
:100A94006EEB0E0E4FEA8E1343EA9C634FEA8C1101
:100AA400B1EB0C0163EB0E03DB0043EA5173C900A5
:100AB40011EB000C43F10003990200234FEA8C2050
:100AC40041EA9C5100F070FDD1E70348D7E70348A1
:100AD400D5E700BF0038024040787D010024F400CF
:100AE400002800F09B8070B50D4604464F4B1B68F0
:100AF40003F007038B4208D2CBB24C4A137013683D
:100B040003F007038B4240F08B80236813F0020F3D
:100B140017D013F0040F04D0454A936843F4E0530C
:100B24009360236813F0080F04D0414A936843F498
:100B3400604393603E4A936823F0F003A1680B433B
:100B44009360236813F0010F32D06368012B21D026
:100B54009A1E012A25D9364A126812F0020F61D072
:100B640033498A6822F0030213438B60FFF77EFC4B
:100B740006462F4B9B6803F00C036268B3EB820FAD
:100B840016D0FFF773FC801B41F288339842F0D9EA
:100B9400032042E0264A126812F4003FE0D101200B
:100BA4003BE0234A126812F0007FD9D1012034E0DF
:100BB4001E4B1B6803F00703AB4207D9EAB21B4B79
:100BC4001A701B6803F00703AB422DD1236813F09E
:100BD400040F06D0164A936823F4E053E1680B43EC
:100BE4009360236813F0080F07D0114A936823F425
:100BF4006043216943EAC1039360FFF71DFF0C4B77
:100C04009B68C3F303130B4AD35CD8400A4B1860A8
:100C14000A4B1868FFF7DEFB002070BD0120704707
:100C24000120FAE70120F8E70120F6E7003C024042
:100C340000380240A8190008000000200800002025
:100C4400014B1868704700BF0000002008B5FFF78B
:100C5400F7FF044B9B68C3F38223034AD35CD84059
:100C640008BD00BF00380240A019000808B5FFF70E
:100C7400E7FF044B9B68C3F34233034AD35CD84079
:100C840008BD00BF00380240A0190008002808DB96
:100C94000901C9B200F1604000F5614080F8001319
:100CA400704700F00F000901C9B2014B1954704795
:100CB40014ED00E000B500F00700C0F1070CBCF132
:100CC400040F28BF4FF0040C031D062B0FD9C31EBD
:100CD4004FF0FF3E0EFA0CF021EA000199400EFAA3
:100CE40003FE22EA0E0241EA02005DF804FB00233F
:100CF400EEE70000074AD36823F4E0631B041B0CEF
:100D0400000200F4E060034343F0BF6343F40033A4
:100D1400D360704700ED00E010B50446054BD86879
:100D2400C0F30220FFF7C6FF01462046FFF7AEFFDF
:100D340010BD00BF00ED00E00138B0F1807F0BD2A0
:100D44004FF0E0235861054AF02182F82310002077
:100D5400986107221A6170470120704700ED00E096
:100D6400026802F10C0353E8003F23F490730C3241
:100D740042E800310029F3D1026802F1140353E878
:100D8400003F23F00103143242E800310029F3D17B
:100D9400036B012B05D0202380F84230002303632A
:100DA4007047026802F10C0353E8003F23F010037C
:100DB4000C3242E800310029F3D1ECE710B50446C7
:100DC4000268136923F44053C1680B4313618368B9
:100DD40002691A4343691A43C3691A430168CB6819
:100DE40023F4164323F00C031343CB6002685369C6
:100DF40023F4407381690B4353610368314A93427E
:100E040006D002F58062934202D0FFF71FFF01E093
:100E1400FFF72CFFE369B3F5004F29D00021031835
:100E240049411B1841F10001C90041EA5371DB003B
:100E3400181863684FEA83024FEA937341F1000183
:100E440000F0B2FB204AA2FB00314909642303FBF2
:100E540011031B013233A2FB03235B0903F0F002ED
:100E640002EB011203F00F03216813448B6010BDE1
:100E74000023021843EB0301121841F10001C900D9
:100E840041EA5271D200101841F1000162689218CF
:100E94005B4100F089FB0C4AA2FB00314909642341
:100EA40003FB1103DB003233A2FB03235B095A006B
:100EB40002F4F87202EB011203F0070321681344F1
:100EC4008B60D4E7001001401F85EB512DE9F043FE
:100ED40083B005460E4617469946DDF828802B68F0
:100EE4001C6836EA04040CBF01240024BC4228D147
:100EF400B8F1FF3FF3D0FFF7B9FAA0EB0900404582
:100F040023D8B8F1000F22D02B68DA6812F0040F4E
:100F1400E5D0802EE3D0402EE1D01A6812F0080FFD
:100F2400DDD0002401941A6801925B680193019B4F
:100F34002846FFF715FF08236B6485F8404001201D
:100F440000E0002003B0BDE8F0830320FAE70320AB
:100F5400F8E760B310B5044690F8413013B3242386
:100F640084F841302268D36823F40053D3602046C8
:100F7400FFF724FF2268136923F490431361226866
:100F8400536923F02A0353612268D36843F400535E
:100F9400D36000206064202384F8413084F8423018
:100FA400606310BD80F8403000F0BAFAD7E7012042
:100FB40070472DE9F04182B01E4690F84130DBB213
:100FC400202B56D104460D469046002955D00AB927
:100FD40001204FE000234364212380F84130FFF7D0
:100FE40045FA0746A4F82480A4F82680A368B3F53C
:100FF400805F02D04FF0000814E023692BB34FF058
:1010040000080FE0202384F84130032032E038F850
:10101400023B2268C3F308035360E28C92B2013AA4
:1010240092B2E284E38C9BB293B100963B460022D9
:1010340080212046FFF74AFF0028E3D1002DE6D0A7
:1010440015F8012B23685A60E7E7A8460025E9E76D
:1010540000963B46002240212046FFF737FF18B98F
:10106400202384F8413005E0202384F84130032014
:1010740000E0022002B0BDE8F0810120FAE72DE98A
:10108400F04106460C46174698463BE0FFF7EEF95A
:10109400069BC01A404502D8B8F1000F32D1012D89
:1010A40018D033689B6924EA03039BB2B3FA83F331
:1010B4005B099F4226D100233363202286F83D201A
:1010C40086F83E30326C42F02002326486F83C30BE
:1010D400012027E033685B6924EA03039BB2B3FA77
:1010E40083F35B09E5E733685B6924EA030C1FFAC1
:1010F4008CFCBCFA8CFC4FEA5C1C674511D1B8F13E
:10110400FF3FC3D1C4F30745012DECD033689B697D
:1011140024EA030C1FFA8CFCBCFA8CFC4FEA5C1C1E
:10112400EBE70020BDE8F081002800F0CC8070B52A
:10113400044690F83D30002B77D0242384F83D30CA
:101144002268136823F0010313602268136843F4D0
:10115400004313602268136823F400431360FFF70D
:1011640075FD62685A4B9A4264D85A4B98428CBFB8
:1011740000230123002B40F0A8805749A1FB003134
:101184008B0C25686A6822F03F0242EA91426A6049
:1011940021680A6A22F03F0266684D4DAE424FD87C
:1011A400013313430B622168CA6922F44F4222F0CF
:1011B400FF026568464B9D424CD8431E6D00B3FB4D
:1011C400F5F3013340F6FC70034278D0C3F30B030C
:1011D4001A43CA6121680B6823F0C003E269206ADC
:1011E400024313430B6021688B6823F4034323F009
:1011F400FF032269E068024313438B602168CB68D4
:1012040023F0FF036269A06902431343CB602268A1
:10121400136843F00103136000202064202384F842
:101224003D30206384F83E0070BD80F83C3000F00F
:101234003FF982E7294B98428CBF0023012399E7A9
:101244004FF4967505FB03F3254DA5FB03539B094A
:101254000133A6E7A668BEB9431E05EB450CB3FBF4
:10126400FCF30133C3F30B03B3FA83F35B0943BB0E
:10127400C6B9431E05EB4505B3FBF5F30133C3F3D0
:101284000B0343F40043A3E7431E05EB850C0CEB6F
:101294008C0CB3FBFCF30133C3F30B03B3FA83F3FA
:1012A4005B09E4E7431E05EB850505EB8505B3FB08
:1012B400F5F30133C3F30B0343F4404388E70423FA
:1012C40086E7012384E7012070470120ACE700BFD3
:1012D400A08601007F841E0083DE1B43FF083D00BF
:1012E400D34D62102DE9F04385B0044688469146FB
:1012F4001D46FFF7BBF894F83D30DBB2202B03D03A
:10130400022005B0BDE8F0830646009019230122AF
:1013140057492046FFF7B3FE002840F0A08094F818
:101324003C30012B00F09D80012384F83C3023687D
:101334001A6812F0010F03D11A6842F001021A6010
:101344002268136823F400631360242384F83D3077
:1013540000272764474BE36240E023681B6813F4CB
:10136400807F02D04FF4007323640320C9E7A023D5
:1013740084F83D3022685369C3F340035269C2F3D1
:10138400802294F83DC05FFA8CFCBCF1A00F09D018
:1013940043B93AB9FFF76AF8801BA842E7D8002D91
:1013A400E8D1E4E7202384F83D3023685A6912F039
:1013B400020F31D11A6842F400721A6023686FF484
:1013C40080625A6100961923012229492046FFF7B9
:1013D40056FE002849D101374F4538D22268136898
:1013E40043F48073136000962B4600224FF00111E2
:1013F4002046FFF744FE0028AFD1236808F0FE0220
:101404001A61FFF733F8064622685369C3F34003B1
:101414005269C2F38022B4E71A6842F400721A6077
:101424000023039323685A6903929B690393039BE4
:101434000096192301220E492046FFF720FE90B999
:10144400202384F83D30002384F83C3059E72023DE
:1014540084F83D30002384F83C30012051E7022019
:101464004FE702204DE701204BE7012049E700BF89
:10147400020010000000FFFF82B0002100910B4B1E
:101484005A6C42F480425A645A6C02F480420092CC
:10149400009A01911A6C42F080521A641B6C03F09A
:1014A40080530193019B02B0704700BF0038024093
:1014B40000B589B00023039304930593069307931F
:1014C4000268154B9A4202D009B05DF804FB002172
:1014D400019103F5F2331A6B42F002021A631A6B9C
:1014E40002F002020192019A02911A6C42F4001273
:1014F4001A641B6C03F400130293029BC02303932E
:1015040012230493032306930423079303A9034894
:10151400FEF7B2FFD8E700BF0054004000040240C9
:1015240000B589B0002303930493059306930793AE
:101534000268154B9A4202D009B05DF804FB002101
:10154400019103F5FA331A6C42F400321A641A6CEE
:1015540002F400320192019A02911A6B42F00102E4
:101564001A631B6B03F001030293029B0C23039386
:1015740002230493032306930723079303A9034831
:10158400FEF77AFFD8E700BF0044004000000240A5
:10159400FEE7FEE7FEE7FEE7FEE7704770477047A9
:1015A40008B5FEF757FF08BD53B94AB9002908BF6B
:1015B40000281CBF4FF0FF314FF0FF3000F06AB934
:1015C400ADF1080C6DE904CE00F006F8DDF804E096
:1015D400DDE9022304B070472DE9F047089D0E466B
:1015E40004460F46002B4AD194468C45B2FA82F247
:1015F40060D942B1C2F12003974020FA03F30CFAF8
:1016040002FC1F4394404FEA1C4E1FFA8CF6B7FBB2
:10161400FEF1230C0EFB117743EA074301FB06F0AE
:1016240098420AD91CEB030301F1FF3780F01581BE
:10163400984240F21281023963441B1AA4B2B3FBEC
:10164400FEF00EFB103344EA034400FB06F6A64208
:101654000AD91CEB040400F1FF3380F00081A64298
:1016640040F2FD806444023840EA0140A41B00219A
:101674001DB1D4400023C5E90043BDE8F0878B4287
:1016840005D90DB1C5E9000100210846F5E7B3FA13
:1016940083F1002946D1B34202D3824200F2F5809D
:1016A400841A66EB030201201746002DE5D0C5E934
:1016B4000047E2E7002A40F09380A1EB0C034FEAD5
:1016C4001C471FFA8CFE0121B3FBF7F607FB16300B
:1016D400230C43EA00430EFB06F0984208D91CEBA6
:1016E400030306F1FF3802D2984200F2D080464646
:1016F4001B1AA4B2B3FBF7F007FB103344EA03440C
:101704000EFB00FEA64508D91CEB040400F1FF33D0
:1017140002D2A64500F2B6801846A4EB0E0440EAB5
:101724000640A5E7C1F120078B4022FA07FC4CEAEA
:10173400030C06FA01FE20FA07F426FA07F344EA3A
:101744000E0400FA01F84FEA1C404FEA1449B3FBB7
:10175400F0FE1FFA8CF600FB1E3349EA03430EFB2E
:1017640006F9994502FA01F20BD91CEB03030EF1B9
:10177400FF3A80F08580994540F28280AEF1020EF6
:101784006344A3EB0909A4B2B9FBF0F300FB13997A
:1017940044EA094403FB06F6A64208D91CEB0404F8
:1017A40003F1FF3068D2A64266D9023B644443EA9F
:1017B4000E40A41BA0FB02E6B4427346B14652D3CA
:1017C4004FD05DB1B8EB030264EB090404FA07F7E8
:1017D40022FA01F31F43CC40C5E9007400214CE711
:1017E400C2F1200120FA01F30CFA02FC26FA01F1FD
:1017F400964033434FEA1C471FFA8CFEB1FBF7F0C7
:1018040007FB1016190C41EA064100FB0EF68E4246
:1018140004FA02F408D91CEB010100F1FF382DD2BF
:101824008E422BD902386144891B9BB2B1FBF7F677
:1018340007FB161143EA014306FB0EF1994208D94E
:101844001CEB030306F1FF3814D2994212D9023E6D
:1018540063445B1A46EA004136E73946EDE618462A
:1018640002E7F045ADD2BEEB020366EB0C0601388D
:10187400B146A6E74646ECE7034698E74046D3E779
:10188400D6467EE76444023847E708460DE7023E41
:1018940063442DE7704700BF70B50F4B0F4DAB424B
:1018A400A3EB050607D0B610002455F8043B013419
:1018B4009847A642F9D8FEF717FD094D094B5E1B60
:1018C400AB424FEAA60606D0002455F8043B013487
:1018D4009847A642F9D870BD00000000000000003F
:1018E4000000000000000000830730B547D0541EFC
:1018F400002A3ED0CAB2034601E0013C39D303F8C2
:10190400012B9D07F9D1032C2CD9CDB205EB05256C
:101914000F2C05EB054535D9A4F1100222F00F0C6C
:1019240003F1100EE6444FEA121C1A46C2E90055B0
:10193400C2E9025510327245F8D10CF1010214F0DB
:101944000C0F03EB021204F00F0C13D0ACF10403E0
:1019540023F003030433134442F8045B9342FBD1A2
:101964000CF003042CB1C9B21C4403F8011BA342BC
:10197400FBD130BD64461346002CF4D1F9E703468D
:101984001446C0E71A46A446E0E700BF66696E65E0
:101994000A00000048656C6C6F0A0000000000003B
:1019A400010203040000000000000000010203041F
:0419B4000607080911
:0819B80024FCFF7F0100000088
:0C19C0000024F4000100000010000000F2
:04000005080003717B
:00000001FF
